:100000000C942A000C942A110C946F110C94B411C6
:100010000C9447000C9447000C9447000C94470044
:100020000C9447000C9447000C9447000C94470034
:100030000C9447000C9447000C9447000C94470024
:100040000C9447000C9447000C9447000C94470014
:100050000C94470011241FBECFE5D8E0DEBFCDBF12
:1000600011E0A0E6B0E0ECEDF9E202C005900D92DF
:10007000A23BB107D9F711E0A2EBB1E001C01D929C
:10008000AA3BB107E1F70E9403120C94EC140C9404
:100090000000EF92FF920F931F937B018C0120E0F1
:1000A00030E040E05FE40E94790388238CF0C801CF
:1000B000B70120E030E040E05FE40E94C1010E940F
:1000C000D9039B01AC01205030404040504806C04D
:1000D000C801B7010E94D9039B01AC01B901CA0153
:1000E0001F910F91FF90EF900895A0E0B0E0EBE733
:1000F000F0E00C94B514DC012B01FA019C919230D4
:1001000008F439C1EB018881823008F433C194309E
:1001100069F4843009F02FC111969C91119789815F
:10012000981709F428C1AEE7B0E025C1843009F47E
:1001300021C18230A9F4923009F01DC19A01AD01AC
:1001400088E0EA010990AE01E90109929E0181501F
:10015000C1F7E201898111969C918923818308C1AD
:10016000923009F407C112962D903C901397EB0141
:100170008A819B811496AD90BD90CD90DC901797AD
:10018000EC80FD800E811F819101281B390BB90184
:1001900037FF04C066277727621B730B6032710537
:1001A0000CF061C0121613066CF537014801062EDB
:1001B00004C096948794779467940A94D2F721E0C8
:1001C00030E040E050E004C0220F331F441F551FB1
:1001D0006A95D2F721503040404050402E213F21B7
:1001E00040235123211531054105510521F021E01E
:1001F00030E040E050E079018A01E628F72808293C
:1002000019293CC0232BD1F1260E371E350146019A
:10021000062E04C096948794779467940A94D2F734
:1002200021E030E040E050E004C0220F331F441FC3
:10023000551F6A95D2F721503040404050402A2146
:100240003B214C215D21211531054105510521F04E
:1002500021E030E040E050E059016A01A628B728CB
:10026000C828D9280BC0821593052CF01C01AA249C
:10027000BB24650103C0EE24FF24870111969C91E5
:10028000D20111968C91981709F445C0992339F041
:10029000A80197012A193B094C095D0906C0A6016E
:1002A00095012E193F09400B510B57FD08C01182D3
:1002B0003382228224833583468357831DC081E0A5
:1002C00081833382228288279927DC01821B930B4A
:1002D000A40BB50B84839583A683B7830DC0220F2F
:1002E000331F441F551F24833583468357838281E0
:1002F000938101979383828324813581468157813D
:10030000DA01C9010197A109B1098F5F9F4FAF4F72
:10031000BF4328F30BC0918333822282EA0CFB1C7B
:100320000C1D1D1DE482F5820683178383E0808304
:10033000248135814681578157FF1AC0C901AA27F8
:1003400097FDA095BA2F81709070A070B0705695EF
:10035000479537952795822B932BA42BB52B848318
:100360009583A683B7838281938101969383828349
:10037000DF0101C0D201CD01CDB7DEB7E2E10C94BF
:10038000D114A0E2B0E0E7ECF1E00C94C114698371
:100390007A838B839C832D833E834F835887E9E048
:1003A000EE2EF12CEC0EFD1ECE010196B7010E943F
:1003B000CA058E010F5E1F4FCE010596B8010E943F
:1003C000CA058A8991E089278A8BC701B801AE01E5
:1003D000475E5F4F0E9475000E94F504A096E6E01C
:1003E0000C94DD14A0E2B0E0E8EFF1E00C94C1144D
:1003F00069837A838B839C832D833E834F835887C5
:10040000F9E0EF2EF12CEC0EFD1ECE010196B701A6
:100410000E94CA058E010F5E1F4FCE010596B801DE
:100420000E94CA05C701B801AE01475E5F4F0E9436
:1004300075000E94F504A096E6E00C94DD14A0E29D
:10044000B0E0E5E2F2E00C94B51469837A838B8323
:100450009C832D833E834F835887CE010196BE0136
:10046000675F7F4F0E94CA05CE010596BE016F5E91
:100470007F4F0E94CA059985923088F08989823021
:10048000C8F0943019F4823051F404C0843029F457
:10049000923081F48EE790E0C6C0923049F420E0BB
:1004A0009A858A89981321E02A87CE010996BBC0D4
:1004B000823049F420E09A858A89981321E02A8BBA
:1004C000CE014196B0C02D843E844F8458886D88FB
:1004D0007E888F88988CEE24FF248701AA24BB2471
:1004E000650140E050E060E070E0E0E0F0E0C10174
:1004F00081709070892BE9F0E60CF71C081D191D1E
:100500009A01AB012A0D3B1D4C1D5D1D80E090E062
:10051000A0E0B0E0E614F7040805190520F481E036
:1005200090E0A0E0B0E0BA01A901480F591F6A1F8E
:100530007B1FAA0CBB1CCC1CDD1C97FE08C081E0F5
:1005400090E0A0E0B0E0A82AB92ACA2ADB2A3196B6
:10055000E032F10549F0660C771C881C991C569412
:10056000479437942794C3CFFA85EA892B893C892D
:100570008B859C85280F391F2E5F3F4F17C0CA01FE
:1005800081709070892B61F016950795F794E79428
:1005900080E090E0A0E0B0E8E82AF92A0A2B1B2BC3
:1005A00076956795579547952F5F3F4F77FDE7CF36
:1005B0000CC0440F551F661F771F17FD4160EE0CDE
:1005C000FF1C001F111F21503040403090E05907A0
:1005D00090E0690790E4790760F32B8F3C8FDB0193
:1005E000CA018F779070A070B07080349105A1051A
:1005F000B10561F447FD0AC0E114F10401051105DC
:1006000029F0405C5F4F6F4F7F4F40781A8EFE1786
:1006100011F081E08A8F4D8F5E8F6F8F78A383E01A
:10062000898FCE0149960E94F504A096E2E10C94D0
:10063000D114A8E1B0E0EFE1F3E00C94C1146983B8
:100640007A838B839C832D833E834F83588789E0F5
:10065000E82EF12CEC0EFD1ECE010196B7010E9492
:10066000CA058E010F5E1F4FCE010596B8010E948C
:10067000CA058985823040F08989823028F0C70117
:10068000B8010E94420601C081E06896E6E00C9441
:10069000DD14A8E1B0E0EFE4F3E00C94C114698349
:1006A0007A838B839C832D833E834F83588789E095
:1006B000E82EF12CEC0EFD1ECE010196B7010E9432
:1006C000CA058E010F5E1F4FCE010596B8010E942C
:1006D000CA058985823040F08989823028F0C701B7
:1006E000B8010E94420601C08FEF6896E6E00C94C4
:1006F000DD14A8E1B0E0EFE7F3E00C94C1146983E6
:100700007A838B839C832D833E834F83588789E034
:10071000E82EF12CEC0EFD1ECE010196B7010E94D1
:10072000CA058E010F5E1F4FCE010596B8010E94CB
:10073000CA058985823040F08989823028F0C70156
:10074000B8010E94420601C08FEF6896E6E00C9463
:10075000DD14A8E1B0E0EFEAF3E00C94C114698382
:100760007A838B839C832D833E834F83588789E0D4
:10077000E82EF12CEC0EFD1ECE010196B7010E9471
:10078000CA058E010F5E1F4FCE010596B8010E946B
:10079000CA058985823040F08989823028F0C701F6
:1007A000B8010E94420601C081E06896E6E00C9420
:1007B000DD14ACE0B0E0EFEDF3E00C94C514698318
:1007C0007A838B839C83CE010196BE016B5F7F4F42
:1007D0000E94CA058D81823061F1823050F18430EF
:1007E00021F48E81882351F12EC02F81388537FD69
:1007F00020C06E812F3131051CF06623F9F023C033
:100800008EE190E0821B930B29853A854B855C85B0
:1008100004C056954795379527958A95D2F7662354
:10082000B1F050954095309521953F4F4F4F5F4F18
:100830000EC020E030E040E050E009C02FEF3FEF75
:100840004FEF5FE704C020E030E040E050E8B9013E
:10085000CA012C96E2E00C94E114A8E0B0E0E3E3D6
:10086000F4E00C94BD147B018C01611571058105C8
:10087000910519F482E0898360C083E089838EE169
:10088000C82ED12CDC82CB82ED82FE820F831887AA
:10089000C801B7010E94A604FC013197F7FF3BC0D5
:1008A000222733272E1B3F0B57016801022E04C05D
:1008B000D694C794B794A7940A94D2F740E050E036
:1008C00060E070E081E090E0A0E0B0E004C0880F5C
:1008D000991FAA1FBB1F2A95D2F70197A109B10939
:1008E0008E219F21A023B1230097A105B10521F0FE
:1008F00041E050E060E070E04A295B296C297D29E5
:100900004D835E836F8378878EE190E08E1B9F0B13
:100910009C838B8312C0309781F00E2E04C0EE0CA6
:10092000FF1C001F111F0A94D2F7ED82FE820F8375
:100930001887CE1ADF0ADC82CB821A82CE0101969A
:100940000E94F5042896EAE00C94D914EF92FF92E5
:100950000F931F937B018C0180E0E81680E0F8067E
:1009600081E0080780E0180788F48FEFE816F104AB
:100970000105110531F028F088E090E0A0E0B0E03A
:1009800017C080E090E0A0E0B0E012C080E0E81680
:1009900080E0F80680E0080781E0180728F088E189
:1009A00090E0A0E0B0E004C080E190E0A0E0B0E022
:1009B00020E230E040E050E0281B390B4A0B5B0B93
:1009C00004C016950795F794E7948A95D2F7F70136
:1009D000EA57FF4F8081281B310941095109C9019C
:1009E0001F910F91FF90EF900895DF92EF92FF9289
:1009F0000F931F93FC01E480F58006811781D1805D
:100A00008081823048F480E090E0A0E1B0E0E82A04
:100A1000F92A0A2B1B2BA5C0843009F49FC0823011
:100A200021F4EE24FF24870105C0E114F10401053F
:100A3000110519F4E0E0F0E096C0628173819FEF48
:100A4000623879070CF05BC022E83FEF261B370BBA
:100A50002A3131052CF020E030E040E050E02AC09F
:100A6000B801A701022E04C0769567955795479562
:100A70000A94D2F781E090E0A0E0B0E004C0880FD3
:100A8000991FAA1FBB1F2A95D2F70197A109B10987
:100A90008E219F21A023B1230097A105B10521F04C
:100AA00081E090E0A0E0B0E09A01AB01282B392B67
:100AB0004A2B5B2BDA01C9018F779070A070B07060
:100AC00080349105A105B10539F427FF09C0205CE8
:100AD0003F4F4F4F5F4F04C0215C3F4F4F4F5F4F21
:100AE000E0E0F0E02030A0E03A07A0E04A07A0E410
:100AF0005A0710F0E1E0F0E079018A0127C0603880
:100B0000710564F5FB01E158FF4FD801C7018F77EC
:100B10009070A070B07080349105A105B10539F4D2
:100B2000E7FE0DC080E490E0A0E0B0E004C08FE3F9
:100B300090E0A0E0B0E0E80EF91E0A1F1B1F17FFAF
:100B400005C016950795F794E794319687E01695BA
:100B50000795F794E7948A95D1F705C0EE24FF2412
:100B60008701EFEFF0E06E2F679566276795902F6E
:100B70009F77D794DD24D7948E2F8695492F462BC7
:100B8000582F5D29B701CA011F910F91FF90EF9077
:100B9000DF900895FC01DB01408151812281622FA9
:100BA0006F7770E0221F2227221F9381892F880FE1
:100BB000822B282F30E0991F9927991F11969C931B
:100BC000119721153105A9F54115510561057105EB
:100BD00011F482E037C082E89FEF13969C938E93C6
:100BE00012979A01AB0167E0220F331F441F551F74
:100BF0006A95D1F783E08C930DC0220F331F441FF9
:100C0000551F12968D919C911397019713969C9363
:100C10008E931297203080E0380780E0480780E408
:100C2000580758F314962D933D934D935C93179763
:100C300008952F3F310579F441155105610571057E
:100C400019F484E08C93089564FF03C081E08C93D1
:100C500012C01C9210C02F57304013963C932E9315
:100C6000129783E08C9387E0440F551F661F771F10
:100C70008A95D1F7706414964D935D936D937C9330
:100C8000179708951F93DC01FB019C91923008F4A3
:100C900047C08081823008F443C0943051F41196EB
:100CA0001C91843099F58181682F70E0611B710976
:100CB0003FC0843021F0923031F48230B9F181812B
:100CC000882389F12DC011961C9111978230F1F083
:100CD00081811817D9F412962D913C911397828136
:100CE00093818217930794F028173907BCF0149664
:100CF0008D919D910D90BC91A02D248135814681CF
:100D00005781281739074A075B0718F4112341F068
:100D10000AC082179307A407B50740F4112319F0FE
:100D200061E070E005C06FEF7FEF02C060E070E04F
:100D3000CB011F910895DF93CF93CDB7DEB781E04C
:100D40000E943907CF91DF910895DF93CF93CDB7FC
:100D5000DEB72E970FB6F894DEBF0FBECDBF80E092
:100D600090E0A0E2B2E48B879C87AD87BE876B855D
:100D70007C858D859E8520E030E04AEF54E40E941A
:100D80001F02DC01CB018F839887A987BA876F8107
:100D9000788589859A8520E030E040E85FE30E940D
:100DA000A90388232CF481E090E09E838D833FC0CB
:100DB0006F81788589859A8520E03FEF4FE757E47A
:100DC0000E94490318164CF56B857C858D859E85A0
:100DD00020E030E040E251E40E941F02DC01CB0140
:100DE000BC01CD010E944900DC01CB019E838D83B3
:100DF0000FC088EC90E09C838B838B819C81019752
:100E0000F1F79C838B838D819E8101979E838D83D7
:100E10008D819E81009769F714C06F8178858985DF
:100E20009A850E944900DC01CB019E838D838D81D0
:100E30009E819A83898389819A810197F1F79A83A8
:100E4000898382E00E94390788E20E9439078CE09A
:100E50000E94390781E00E94390786E00E94390725
:100E60002E960FB6F894DEBF0FBECDBFCF91DF91A7
:100E70000895DF93CF93CDB7DEB7E9970FB6F89417
:100E8000DEBF0FBECDBF89AF80E063E040E00E94CF
:100E9000B50E89AD82958F70982F917081E060E0DA
:100EA000492F0E94B50E89AD829586958770982F3F
:100EB000917081E061E0492F0E94B50E89AD829565
:100EC000869586958370982F917081E062E0492F16
:100ED0000E94B50E89AD982F991F9927991F81E01F
:100EE00064E0492F0E94B50E80E062E041E00E947C
:100EF000B50E80E090E0A0E0B0E48DAB9EABAFAB70
:100F0000B8AF6DA97EA98FA998AD20E030E04AEF77
:100F100054E40E941F02DC01CB0189AB9AABABAB5E
:100F2000BCAB69A97AA98BA99CA920E030E040E874
:100F30005FE30E94A90388232CF481E090E098AB42
:100F40008FA73FC069A97AA98BA99CA920E03FEF90
:100F50004FE757E40E94490318164CF56DA97EA986
:100F60008FA998AD20E030E040E251E40E941F02DA
:100F7000DC01CB01BC01CD010E944900DC01CB01A9
:100F800098AB8FA70FC088EC90E09EA78DA78DA58A
:100F90009EA50197F1F79EA78DA78FA598A9019708
:100FA00098AB8FA78FA598A9009769F714C069A976
:100FB0007AA98BA99CA90E944900DC01CB0198ABBE
:100FC0008FA78FA598A99CA78BA78BA59CA50197F8
:100FD000F1F79CA78BA780E062E040E00E94B50E8D
:100FE00080E090E0A0E0B0E48FA398A7A9A7BAA7FB
:100FF0006FA178A589A59AA520E030E04AEF54E4D6
:101000000E941F02DC01CB018BA39CA3ADA3BEA356
:101010006BA17CA18DA19EA120E030E040E85FE3C0
:101020000E94A90388232CF481E090E09AA389A36D
:101030003FC06BA17CA18DA19EA120E03FEF4FE7B7
:1010400057E40E94490318164CF56FA178A589A5AD
:101050009AA520E030E040E251E40E941F02DC014A
:10106000CB01BC01CD010E944900DC01CB019AA358
:1010700089A30FC088EC90E098A38F8F8F8D98A1E3
:101080000197F1F798A38F8F89A19AA101979AA34D
:1010900089A389A19AA1009769F714C06BA17CA1CB
:1010A0008DA19EA10E944900DC01CB019AA389A3D6
:1010B00089A19AA19E8F8D8F8D8D9E8D0197F1F7BD
:1010C0009E8F8D8F89AD982F917081E060E0492FC0
:1010D0000E94B50E89AD8695982F917081E061E0F0
:1010E000492F0E94B50E89AD86958695982F9170EF
:1010F00081E062E0492F0E94B50E89AD8695869504
:101100008695982F917081E064E0492F0E94B50E7A
:1011100080E062E041E00E94B50E80E090E0A0E057
:10112000B0E4898F9A8FAB8FBC8F698D7A8D8B8D50
:101130009C8D20E030E04AEF54E40E941F02DC0165
:10114000CB018D8B9E8BAF8BB88F6D897E898F89FC
:10115000988D20E030E040E85FE30E94A9038823F7
:101160002CF481E090E09C8B8B8B3FC06D897E8955
:101170008F89988D20E03FEF4FE757E40E944903A5
:1011800018164CF5698D7A8D8B8D9C8D20E030E0A2
:1011900040E251E40E941F02DC01CB01BC01CD0101
:1011A0000E944900DC01CB019C8B8B8B0FC088EC2B
:1011B00090E09A8B898B89899A890197F1F79A8BAC
:1011C000898B8B899C8901979C8B8B8B8B899C89C4
:1011D000009769F714C06D897E898F89988D0E9468
:1011E0004900DC01CB019C8B8B8B8B899C89988B74
:1011F0008F878F8598890197F1F7988B8F8780E08B
:1012000062E040E00E94B50E80E090E0A0E0B0E433
:101210008B879C87AD87BE876B857C858D859E85FA
:1012200020E030E04AEF54E40E941F02DC01CB01D1
:101230008F839887A987BA876F81788589859A85F2
:1012400020E030E040E85FE30E94A90388232CF40B
:1012500081E090E09E838D833FC06F817885898592
:101260009A8520E03FEF4FE757E40E9449031816A4
:101270004CF56B857C858D859E8520E030E040E2D5
:1012800051E40E941F02DC01CB01BC01CD010E9490
:101290004900DC01CB019E838D830FC088EC90E078
:1012A0009C838B838B819C810197F1F79C838B833B
:1012B0008D819E8101979E838D838D819E81009774
:1012C00069F714C06F81788589859A850E944900E5
:1012D000DC01CB019E838D838D819E819A838983DE
:1012E00089819A810197F1F79A838983E9960FB6EC
:1012F000F894DEBF0FBECDBFCF91DF910895DF938D
:10130000CF93CDB7DEB7E9970FB6F894DEBF0FBE27
:10131000CDBF89AF80E063E041E00E94B50E89ADAA
:1013200082958F70982F917081E060E0492F0E9424
:10133000B50E89AD829586958770982F917081E062
:1013400061E0492F0E94B50E89AD829586958695FC
:101350008370982F917081E062E0492F0E94B50E52
:1013600089AD982F991F9927991F81E064E0492F33
:101370000E94B50E80E062E041E00E94B50E80E080
:1013800090E0A0E0B0E48DAB9EABAFABB8AF6DA981
:101390007EA98FA998AD20E030E04AEF54E40E9486
:1013A0001F02DC01CB0189AB9AABABABBCAB69A92B
:1013B0007AA98BA99CA920E030E040E85FE30E9475
:1013C000A90388232CF481E090E098AB8FA73FC05D
:1013D00069A97AA98BA99CA920E03FEF4FE757E4C0
:1013E0000E94490318164CF56DA97EA98FA998ADE6
:1013F00020E030E040E251E40E941F02DC01CB011A
:10140000BC01CD010E944900DC01CB0198AB8FA744
:101410000FC088EC90E09EA78DA78DA59EA5019793
:10142000F1F79EA78DA78FA598A9019798AB8FA7D5
:101430008FA598A9009769F714C069A97AA98BA903
:101440009CA90E944900DC01CB0198AB8FA78FA516
:1014500098A99CA78BA78BA59CA50197F1F79CA7A2
:101460008BA780E062E040E00E94B50E80E090E053
:10147000A0E0B0E48FA398A7A9A7BAA76FA178A509
:1014800089A59AA520E030E04AEF54E40E941F02AB
:10149000DC01CB018BA39CA3ADA3BEA36BA17CA15C
:1014A0008DA19EA120E030E040E85FE30E94A90307
:1014B00088232CF481E090E09AA389A33FC06BA11C
:1014C0007CA18DA19EA120E03FEF4FE757E40E9451
:1014D000490318164CF56FA178A589A59AA520E0B7
:1014E00030E040E251E40E941F02DC01CB01BC016C
:1014F000CD010E944900DC01CB019AA389A30FC052
:1015000088EC90E098A38F8F8F8D98A10197F1F7C9
:1015100098A38F8F89A19AA101979AA389A389A1E2
:101520009AA1009769F714C06BA17CA18DA19EA11F
:101530000E944900DC01CB019AA389A389A19AA149
:101540009E8F8D8F8D8D9E8D0197F1F79E8F8D8F44
:1015500089AD982F917081E060E0492F0E94B50E0F
:1015600089AD8695982F917081E061E0492F0E94A6
:10157000B50E89AD86958695982F917081E062E0D1
:10158000492F0E94B50E89AD869586958695982F30
:10159000917081E064E0492F0E94B50E80E062E026
:1015A00041E00E94B50E80E090E0A0E0B0E4898FB9
:1015B0009A8FAB8FBC8F698D7A8D8B8D9C8D20E03F
:1015C00030E04AEF54E40E941F02DC01CB018D8B16
:1015D0009E8BAF8BB88F6D897E898F89988D20E027
:1015E00030E040E85FE30E94A90388232CF481E007
:1015F00090E09C8B8B8B3FC06D897E898F89988D05
:1016000020E03FEF4FE757E40E94490318164CF5DE
:10161000698D7A8D8B8D9C8D20E030E040E251E425
:101620000E941F02DC01CB01BC01CD010E944900D8
:10163000DC01CB019C8B8B8B0FC088EC90E09A8BEC
:10164000898B89899A890197F1F79A8B898B8B8984
:101650009C8901979C8B8B8B8B899C89009769F760
:1016600014C06D897E898F89988D0E944900DC01A4
:10167000CB019C8B8B8B8B899C89988B8F878F85DB
:1016800098890197F1F7988B8F8780E062E040E0BE
:101690000E94B50E80E090E0A0E0B0E48B879C87CC
:1016A000AD87BE876B857C858D859E8520E030E08B
:1016B0004AEF54E40E941F02DC01CB018F8398871C
:1016C000A987BA876F81788589859A8520E030E07F
:1016D00040E85FE30E94A90388232CF481E090E0B6
:1016E0009E838D833FC06F81788589859A8520E0B0
:1016F0003FEF4FE757E40E94490318164CF56B85FE
:101700007C858D859E8520E030E040E251E40E949A
:101710001F02DC01CB01BC01CD010E944900DC01AC
:10172000CB019E838D830FC088EC90E09C838B83DC
:101730008B819C810197F1F79C838B838D819E81A6
:1017400001979E838D838D819E81009769F714C0D8
:101750006F81788589859A850E944900DC01CB01DB
:101760009E838D838D819E819A83898389819A81CD
:101770000197F1F79A838983E9960FB6F894DEBF53
:101780000FBECDBFCF91DF910895DF93CF9300D0EF
:101790000F92CDB7DEB79B838A8319820EC08981F1
:1017A000282F30E08A819B81FC01E20FF31F8081AA
:1017B0000E947F0989818F5F89838981282F30E08A
:1017C0008A819B81FC01E20FF31F8081882339F716
:1017D0000F900F900F90CF91DF910895DF93CF93EB
:1017E000CDB7DEB72B970FB6F894DEBF0FBECDBFD7
:1017F0009B878A878A859B85009719F480E30E94DE
:101800007F098A859B859C838B831A821DC08A8170
:10181000E82FF0E08B819C812AE030E0B9010E9442
:101820007F14282FCE010596E80FF91F20838B81A6
:101830009C812AE030E0B9010E947F14CB019C8397
:101840008B838A818F5F8A838B819C810097F9F6D5
:101850008A81898312C08981882F90E09C01215060
:101860003040CE010596FC01E20FF31F8081805DC0
:101870000E947F098981815089838981882359F752
:101880002B960FB6F894DEBF0FBECDBFCF91DF9180
:1018900008950F931F93DF93CF93CDB7DEB76A9769
:1018A0000FB6F894DEBF0FBECDBF6E8B7F8B888FD7
:1018B000998F1A8E6E897F89888D998D20E030E00E
:1018C00040E050E00E941903882311F081E08A8FE4
:1018D00081E09A8D8927882319F080E30E947F098F
:1018E0008E899F89A88DB98D88879987AA87BB879C
:1018F0001D8213C0688579858A859B8520E030E04C
:1019000040E251E40E941F02DC01CB0188879987E5
:10191000AA87BB878D818F5F8D83688579858A854E
:101920009B850E944900DC01CB01BC01CD010E94D6
:101930002D049B01AC01688579858A859B850E9471
:10194000C101DC01CB01BC01CD0120E030E040E071
:1019500050E00E941903882369F6688579858A8595
:101960009B850E944900DC01CB0189839A83AB836C
:10197000BC831F822DC08F81082F10E089819A813E
:10198000AB81BC812AE030E040E050E0BC01CD01F9
:101990000E949314DC01CB01282FCE010C96FC0190
:1019A000E00FF11F208389819A81AB81BC812AE0FD
:1019B00030E040E050E0BC01CD010E949314DA0118
:1019C000C90189839A83AB83BC838F818F5F8F83A7
:1019D00089819A81AB81BC810097A105B10559F637
:1019E0009F818D81981719F480E30E947F098F8170
:1019F0008E8319C09E818D81981719F48EE20E9402
:101A00007F098E81882F90E09C0121503040CE01CB
:101A10000C96FC01E20FF31F8081805D0E947F091C
:101A20008E8181508E838E81882321F78D8188233A
:101A300031F48EE20E947F0980E30E947F096A965A
:101A40000FB6F894DEBF0FBECDBFCF91DF911F91CF
:101A50000F910895DF93CF9300D000D00F92CDB7B0
:101A6000DEB78A836B838A81282F30E03D832C8305
:101A70008C819D8181309105C1F02C813D81223086
:101A800031052CF48C819D81009761F019C02C8167
:101A90003D812230310569F08C819D818330910533
:101AA00061F00EC08B8189830BC08B81805C898340
:101AB00007C08B818C5E898303C08B818C5A89839C
:101AC00089818068898389810E9439070F900F90EE
:101AD0000F900F900F90CF91DF910895DF93CF93E8
:101AE00000D000D00F92CDB7DEB79C838B836D837F
:101AF0001A828D81882F90E0880F991F880F991F77
:101B0000880F991F8A838A8180648A838A810E94D0
:101B1000390719820EC08981282F30E08B819C8182
:101B2000FC01E20FF31F80810E947F0989818F5F92
:101B300089838981883078F380E060E00E942A0DF3
:101B40000F900F900F900F900F90CF91DF9108950D
:101B5000DF93CF9300D00F92CDB7DEB789836A832E
:101B60004B838A816B810E942A0D89810E947F09A3
:101B70000F900F900F90CF91DF910895DF93CF9347
:101B8000CDB7DEB780E06CEF0E94D50D81E06FEF3E
:101B90000E94D50D82E06FEF0E94D50D83E063E1D6
:101BA0000E94D50DCF91DF910895DF93CF9300D0A0
:101BB00000D00F92CDB7DEB78A836B8319828A81FA
:101BC000282F30E03D832C838C819D8181309105CD
:101BD000D1F02C813D81223031052CF48C819D8106
:101BE000009761F01FC02C813D812230310581F0CA
:101BF0008C819D818330910581F014C0EAE3F0E08F
:101C00008B81808311C0E7E3F0E08B8180830CC07F
:101C1000E4E3F0E08B81808307C0E1E3F0E08B81B7
:101C2000808302C081E0898389810F900F900F909B
:101C30000F900F90CF91DF910895DF93CF93CDB7A1
:101C4000DEB727970FB6F894DEBF0FBECDBF8A83ED
:101C50006B835D834C8319828B81883008F079C057
:101C60008C819D81009709F474C08A81282F30E00F
:101C70003F832E834E815F814130510559F18E8122
:101C80009F818230910534F42E813F8121153105E9
:101C900069F05CC04E815F814230510579F18E81DF
:101CA0009F818330910509F43DC050C0E9E3F0E025
:101CB0008081282F30E08B81882F90E0A90102C01D
:101CC000559547958A95E2F7CA018170EC81FD81AF
:101CD000808341C0E6E3F0E08081282F30E08B81F3
:101CE000882F90E0A90102C0559547958A95E2F7A3
:101CF000CA018170EC81FD8180832DC0E3E3F0E0B7
:101D00008081282F30E08B81882F90E0A90102C0CC
:101D1000559547958A95E2F7CA018170EC81FD815E
:101D2000808319C0E0E3F0E08081282F30E08B81D0
:101D3000882F90E0A90102C0559547958A95E2F752
:101D4000CA018170EC81FD81808305C081E08983B7
:101D500002C081E08983898127960FB6F894DEBF9F
:101D60000FBECDBFCF91DF910895DF93CF93CDB755
:101D7000DEB728970FB6F894DEBF0FBECDBF8A83BB
:101D80006B834C8319828B81883008F0F4C08C817E
:101D9000813009F072C08A81282F30E038872F8384
:101DA0008F8198858130910549F12F8138852230C6
:101DB00031052CF48F819885009761F05BC02F81ED
:101DC00038852230310571F18F81988583309105F6
:101DD000E9F150C0ABE3B0E0EBE3F0E08081482FE5
:101DE0008B81282F30E081E090E0022E02C0880F26
:101DF000991F0A94E2F7842B8C93BFC0A8E3B0E04C
:101E0000E8E3F0E08081482F8B81282F30E081E0EB
:101E100090E0022E02C0880F991F0A94E2F7842BEB
:101E20008C93ABC0A5E3B0E0E5E3F0E08081482F00
:101E30008B81282F30E081E090E0022E02C0880FD5
:101E4000991F0A94E2F7842B8C9397C0A2E3B0E029
:101E5000E2E3F0E08081482F8B81282F30E081E0A1
:101E600090E0022E02C0880F991F0A94E2F7842B9B
:101E70008C9383C081E0898380C08C81882309F0A2
:101E800077C08A81282F30E03E832D838D819E810B
:101E90008130910559F12D813E81223031052CF49C
:101EA0008D819E81009769F060C02D813E81223036
:101EB000310589F18D819E818330910509F440C0FF
:101EC00054C0ABE3B0E0EBE3F0E08081482F8B81BE
:101ED000282F30E081E090E0022E02C0880F991F89
:101EE0000A94E2F7809584238C9347C0A8E3B0E07E
:101EF000E8E3F0E08081482F8B81282F30E081E0FB
:101F000090E0022E02C0880F991F0A94E2F7809594
:101F100084238C9332C0A5E3B0E0E5E3F0E0808158
:101F2000482F8B81282F30E081E090E0022E02C004
:101F3000880F991F0A94E2F7809584238C931DC023
:101F4000A2E3B0E0E2E3F0E08081482F8B81282F0C
:101F500030E081E090E0022E02C0880F991F0A94C1
:101F6000E2F7809584238C9308C081E0898305C0C3
:101F700081E0898302C081E08983898128960FB638
:101F8000F894DEBF0FBECDBFCF91DF910895DF93F0
:101F9000CF9300D000D00F92CDB7DEB78A836B838A
:101FA00019828A81282F30E03D832C838C819D818A
:101FB00081309105D1F02C813D81223031052CF406
:101FC0008C819D81009761F01FC02C813D81223062
:101FD000310581F08C819D818330910581F014C0A1
:101FE000EBE3F0E08B81808311C0E8E3F0E08B81CC
:101FF00080830CC0E5E3F0E08B81808307C0E2E3DF
:10200000F0E08B81808302C081E0898389810F9019
:102010000F900F900F900F90CF91DF910895DF9365
:10202000CF9300D000D00F92CDB7DEB78A836B83F9
:1020300019828B81883008F072C08A81282F30E0A5
:102040003D832C838C819D818130910549F12C81C8
:102050003D81223031052CF48C819D81009761F007
:102060005BC02C813D812230310571F18C819D81D5
:1020700083309105E9F150C0ABE3B0E0EBE3F0E071
:102080008081482F8B81282F30E081E090E0022E64
:1020900002C0880F991F0A94E2F784278C9341C0ED
:1020A000A8E3B0E0E8E3F0E08081482F8B81282F9F
:1020B00030E081E090E0022E02C0880F991F0A9460
:1020C000E2F784278C932DC0A5E3B0E0E5E3F0E0D0
:1020D0008081482F8B81282F30E081E090E0022E14
:1020E00002C0880F991F0A94E2F784278C9319C0C5
:1020F000A2E3B0E0E2E3F0E08081482F8B81282F5B
:1021000030E081E090E0022E02C0880F991F0A940F
:10211000E2F784278C9305C081E0898302C081E0C7
:10212000898389810F900F900F900F900F90CF911E
:10213000DF910895DF93CF93CDB7DEB7A5E5B0E08B
:10214000E5E5F0E080818E7F8C93A5E5B0E0E5E5E4
:10215000F0E0808182608C93A5E5B0E0E5E5F0E0F9
:1021600080818B7F8C93A5E5B0E0E5E5F0E0808190
:1021700088608C93A4E5B0E0E4E5F0E080818F7B9B
:102180008C93CF91DF910895DF93CF93CDB7DEB7D6
:10219000ABE5B0E0EBE5F0E0808180648C93CF911B
:1021A000DF910895DF93CF93CDB7DEB7ABE5B0E015
:1021B000EBE5F0E080818F7B8C93CF91DF910895E8
:1021C000DF93CF93CDB7DEB7ABE5B0E0EBE5F0E062
:1021D000808180688C93CF91DF910895DF93CF93B6
:1021E000CDB7DEB7ABE5B0E0EBE5F0E080818F770F
:1021F0008C93CF91DF910895DF93CF93CDB7DEB766
:10220000ABE5B0E0EBE5F0E0808180628C93CF91AC
:10221000DF910895DF93CF93CDB7DEB7ABE5B0E0A4
:10222000EBE5F0E080818F7D8C93CF91DF91089575
:10223000DF93CF9300D0CDB7DEB79A8389838981AE
:102240009A819093B7018093B6010F900F90CF9130
:10225000DF9108951F920F920FB60F9211242F93C2
:102260003F934F935F936F937F938F939F93AF931E
:10227000BF93EF93FF93DF93CF93CDB7DEB78091FA
:10228000B6019091B701009729F0E091B601F09165
:10229000B7010995CF91DF91FF91EF91BF91AF9178
:1022A0009F918F917F916F915F914F913F912F916E
:1022B0000F900FBE0F901F901895DF93CF9300D013
:1022C000CDB7DEB79A83898389819A819093B501CE
:1022D0008093B4010F900F90CF91DF9108951F92DA
:1022E0000F920FB60F9211242F933F934F935F934A
:1022F0006F937F938F939F93AF93BF93EF93FF93CE
:10230000DF93CF93CDB7DEB78091B4019091B50143
:10231000009729F0E091B401F091B5010995CF91B2
:10232000DF91FF91EF91BF91AF919F918F917F913D
:102330006F915F914F913F912F910F900FBE0F9032
:102340001F901895DF93CF9300D0CDB7DEB79A8357
:10235000898389819A819093B3018093B2010F9010
:102360000F90CF91DF9108951F920F920FB60F92A9
:1023700011242F933F934F935F936F937F938F938A
:102380009F93AF93BF93EF93FF93DF93CF93CDB71B
:10239000DEB78091B2019091B301009729F0E091EE
:1023A000B201F091B3010995CF91DF91FF91EF91C7
:1023B000BF91AF919F918F917F916F915F914F915D
:1023C0003F912F910F900FBE0F901F901895DF93A4
:1023D000CF93CDB7DEB7AFE5B0E0EFE5F0E08081B9
:1023E00080688C93CF91DF910895DF93CF93CDB721
:1023F000DEB7AFE5B0E0EFE5F0E080818F778C935A
:10240000CF91DF910895DF93CF93CDB7DEB7C85456
:10241000D0400FB6F894DEBF0FBECDBF0E94BE0DF8
:102420000E94A5060E94E7110E94C4100E94E010BD
:1024300081E394E10E94181188E594E10E945D1106
:1024400088E0FE01B196DF01982F1D929A95E9F779
:1024500084E18BA38EE18CA384E18DA388E0FE014F
:10246000B996DF01982F1D929A95E9F78EE08BA718
:102470008EE08CA78EE08DA788E0FE01F196DF014B
:10248000982F1D929A95E9F788E0FE01F996DF01F1
:10249000982F1D929A95E9F78FE18BAF8FE18CAF62
:1024A0008FE18DAF88E0FE01EF5BFF4FDF01982FDA
:1024B0001D929A95E9F7FE01EF5BFF4F8FE1808354
:1024C000FE01EE5BFF4F8FE18083FE01ED5BFF4F6E
:1024D0008FE18083FE01EC5BFF4F8FE18083FE0183
:1024E000EB5BFF4F8FE18083FE01EA5BFF4F8FE1E3
:1024F0008083FE01E95BFF4F8FE18083CE018196EF
:1025000060E00E946E0DCE01899661E00E946E0D22
:10251000CE01C19662E00E946E0DCE01C99663E0C5
:102520000E946E0DCE018F5B9F4F64E00E946E0D86
:10253000909186012091870180E0692F422F0E94AF
:10254000A80D18A20DC083E060E048A10E94A80D6C
:1025500083E063E048A10E94A80D88A18F5F88A353
:1025600088A1843180F3909186012091870180E0D9
:10257000692F422F0E94A80D81E060E00E942A0D81
:1025800080E690E00E94C50B82E060E00E942A0D88
:1025900080E690E00E94C50B909186012091870112
:1025A00080E0692F422F0E94A80D81E060E00E9428
:1025B0002A0D88E891E00E94C50B82E060E00E944D
:1025C0002A0D8DE991E00E94C50B90918601209122
:1025D000870180E0692F422F0E94A80D80E090E0E3
:1025E000AFE2B4E4898F9A8FAB8FBC8F698D7A8DFF
:1025F0008B8D9C8D20E030E04AEF54E40E941F0256
:10260000DC01CB018D8B9E8BAF8BB88F6D897E8962
:102610008F89988D20E030E040E85FE30E94A903B5
:1026200088232CF481E090E09C8B8B8B3FC06D89DC
:102630007E898F89988D20E03FEF4FE757E40E9415
:10264000490318164CF5698D7A8D8B8D9C8D20E091
:1026500030E040E251E40E941F02DC01CB01BC01EA
:10266000CD010E944900DC01CB019C8B8B8B0FC0FC
:1026700088EC90E09A8B898B89899A890197F1F788
:102680009A8B898B8B899C8901979C8B8B8B8B89EF
:102690009C89009769F714C06D897E898F89988D10
:1026A0000E944900DC01CB019C8B8B8B8B899C8920
:1026B000988B8F878F8598890197F1F7988B8F87F3
:1026C0000E94F51180918601813021F480918E0164
:1026D0008C3751F080918601823009F089C0809159
:1026E000A3018C3709F084C0909186012091870165
:1026F00083E0692F422F0E94A80D83E065E00E94CD
:102700002A0D84E790E00E94C50B80E090E0AAE7E4
:10271000B4E48B879C87AD87BE876B857C858D8570
:102720009E8520E030E04AEF54E40E941F02DC0165
:10273000CB018F839887A987BA876F817885898530
:102740009A8520E030E040E85FE30E94A9038823F7
:102750002CF481E090E09E838D833FC06F8178856B
:1027600089859A8520E03FEF4FE757E40E944903AF
:1027700018164CF56B857C858D859E8520E030E0B4
:1027800040E251E40E941F02DC01CB01BC01CD01FB
:102790000E944900DC01CB019E838D830FC088EC31
:1027A00090E09C838B838B819C810197F1F79C83C4
:1027B0008B838D819E8101979E838D838D819E81E8
:1027C000009769F714C06F81788589859A850E9482
:1027D0004900DC01CB019E838D838D819E819A838C
:1027E000898389819A810197F1F79A838983FFCF41
:1027F000809188018F8F80919D018E8F1D8E21C0C9
:102800008D8D282F30E08D8D882F90E00196FC0172
:10281000E857FE4F8081F901E857FE4F80838D8D88
:10282000282F30E08D8D882F90E00196FC01E35633
:10283000FE4F8081F901E356FE4F80838D8D8F5FBF
:102840008D8F8D8D8331E0F28F8D80939B018E8DE6
:102850008093B00110929C011092B1010E94E71187
:102860008BCEDF93CF93CDB7DEB780918701882FD2
:1028700090E0FC01E356FE4F80818C3751F080914F
:10288000860190918701692F0E942A0D80E20E94A3
:102890007F0981E0809386019091860120918701D4
:1028A00080E0692F422F0E94A80DCF91DF910895FB
:1028B000DF93CF93CDB7DEB780918701882F90E06B
:1028C000FC01E857FE4F80818C3751F080918601E2
:1028D00090918701692F0E942A0D80E20E947F0952
:1028E00082E080938601909186012091870180E0AB
:1028F000692F422F0E94A80DCF91DF910895AA1B46
:10290000BB1B51E107C0AA1FBB1FA617B70710F0DA
:10291000A61BB70B881F991F5A95A9F7809590950C
:10292000BC01CD010895A1E21A2EAA1BBB1BFD011B
:102930000DC0AA1FBB1FEE1FFF1FA217B307E4079E
:10294000F50720F0A21BB30BE40BF50B661F771FF6
:10295000881F991F1A9469F76095709580959095D6
:102960009B01AC01BD01CF0108952F923F924F9280
:102970005F926F927F928F929F92AF92BF92CF920F
:10298000DF92EF92FF920F931F93CF93DF93CDB718
:10299000DEB7CA1BDB0B0FB6F894DEBF0FBECDBF90
:1029A00009942A88398848885F846E847D848C8461
:1029B0009B84AA84B984C884DF80EE80FD800C816A
:1029C0001B81AA81B981CE0FD11D0FB6F894DEBF4D
:0C29D0000FBECDBFED010895F894FFCFBD
:1029DC0020202020202020202020202020202020EB
:1029EC002020200047616D65204F76657200000045
:1029FC0000000000000000010202030303030404B2
:102A0C000404040404040505050505050505050570
:102A1C000505050505050606060606060606060650
:102A2C00060606060606060606060606060606063A
:102A3C000606060606060707070707070707070720
:102A4C00070707070707070707070707070707070A
:102A5C0007070707070707070707070707070707FA
:102A6C0007070707070707070707070707070707EA
:102A7C0007070707070708080808080808080808D0
:102A8C0008080808080808080808080808080808BA
:102A9C0008080808080808080808080808080808AA
:102AAC00080808080808080808080808080808089A
:102ABC00080808080808080808080808080808088A
:102ACC00080808080808080808080808080808087A
:102ADC00080808080808080808080808080808086A
:102AEC00080808080808080808080808080808085A
:102AFC0008080808080801067C2020207C202020DB
:102B0C00207C2020207C7C20202020200020207C69
:102B1C002020207C7C2020207C20202020207C7CDD
:022B2C00200087
:00000001FF
