:100000000C942A000C943F000C943F000C943F0089
:100010000C943F000C943F000C943F000C943F0064
:100020000C943F000C943F000C943F000C943F0054
:100030000C943F000C943F000C943F000C943F0044
:100040000C943F000C943F000C943F000C943F0034
:100050000C943F0011241FBECFE5D8E0DEBFCDBF1A
:1000600011E0A0E6B0E0E6E3F6E202C005900D92F2
:10007000A63AB107D9F70E9492100C9419130C9468
:100080000000EF92FF920F931F937B018C0120E001
:1000900030E040E05FE40E94710388238CF0C801E7
:1000A000B70120E030E040E05FE40E94B9010E9427
:1000B000D1039B01AC01205030404040504806C065
:1000C000C801B7010E94D1039B01AC01B901CA016B
:1000D0001F910F91FF90EF900895A0E0B0E0E3E74B
:1000E000F0E00C94E212DC012B01FA019C919230B9
:1000F00008F439C1EB018881823008F433C19430AF
:1001000069F4843009F02FC111969C91119789816F
:10011000981709F428C1AEE9B0E025C1843009F48C
:1001200021C18230A9F4923009F01DC19A01AD01BC
:1001300088E0EA010990AE01E90109929E0181502F
:10014000C1F7E201898111969C918923818308C1BD
:10015000923009F407C112962D903C901397EB0151
:100160008A819B811496AD90BD90CD90DC901797BD
:10017000EC80FD800E811F819101281B390BB90194
:1001800037FF04C066277727621B730B6032710547
:100190000CF061C0121613066CF537014801062EEB
:1001A00004C096948794779467940A94D2F721E0D8
:1001B00030E040E050E004C0220F331F441F551FC1
:1001C0006A95D2F721503040404050402E213F21C7
:1001D00040235123211531054105510521F021E02E
:1001E00030E040E050E079018A01E628F72808294C
:1001F00019293CC0232BD1F1260E371E35014601AB
:10020000062E04C096948794779467940A94D2F744
:1002100021E030E040E050E004C0220F331F441FD3
:10022000551F6A95D2F721503040404050402A2156
:100230003B214C215D21211531054105510521F05E
:1002400021E030E040E050E059016A01A628B728DB
:10025000C828D9280BC0821593052CF01C01AA24AC
:10026000BB24650103C0EE24FF24870111969C91F5
:10027000D20111968C91981709F445C0992339F051
:10028000A80197012A193B094C095D0906C0A6017E
:1002900095012E193F09400B510B57FD08C01182E3
:1002A0003382228224833583468357831DC081E0B5
:1002B00081833382228288279927DC01821B930B5A
:1002C000A40BB50B84839583A683B7830DC0220F3F
:1002D000331F441F551F24833583468357838281F0
:1002E000938101979383828324813581468157814D
:1002F000DA01C9010197A109B1098F5F9F4FAF4F83
:10030000BF4328F30BC0918333822282EA0CFB1C8B
:100310000C1D1D1DE482F5820683178383E0808314
:10032000248135814681578157FF1AC0C901AA2708
:1003300097FDA095BA2F81709070A070B0705695FF
:10034000479537952795822B932BA42BB52B848328
:100350009583A683B7838281938101969383828359
:10036000DF0101C0D201CD01CDB7DEB7E2E10C94CF
:10037000FE12A0E2B0E0EFEBF1E00C94EE12698324
:100380007A838B839C832D833E834F835887E9E058
:10039000EE2EF12CEC0EFD1ECE010196B7010E944F
:1003A000C2058E010F5E1F4FCE010596B8010E9457
:1003B000C2058A8991E089278A8BC701B801AE01FD
:1003C000475E5F4F0E946D000E94ED04A096E6E03C
:1003D0000C940A13A0E2B0E0E0EFF1E00C94EE120E
:1003E00069837A838B839C832D833E834F835887D5
:1003F000F9E0EF2EF12CEC0EFD1ECE010196B701B7
:100400000E94C2058E010F5E1F4FCE010596B801F6
:100410000E94C205C701B801AE01475E5F4F0E944E
:100420006D000E94ED04A096E6E00C940A13A0E291
:10043000B0E0EDE1F2E00C94E21269837A838B8301
:100440009C832D833E834F835887CE010196BE0146
:10045000675F7F4F0E94C205CE010596BE016F5EA9
:100460007F4F0E94C2059985923088F08989823039
:10047000C8F0943019F4823051F404C0843029F467
:10048000923081F48EE990E0C6C0923049F420E0C9
:100490009A858A89981321E02A87CE010996BBC0E4
:1004A000823049F420E09A858A89981321E02A8BCA
:1004B000CE014196B0C02D843E844F8458886D880B
:1004C0007E888F88988CEE24FF248701AA24BB2481
:1004D000650140E050E060E070E0E0E0F0E0C10184
:1004E00081709070892BE9F0E60CF71C081D191D2E
:1004F0009A01AB012A0D3B1D4C1D5D1D80E090E073
:10050000A0E0B0E0E614F7040805190520F481E046
:1005100090E0A0E0B0E0BA01A901480F591F6A1F9E
:100520007B1FAA0CBB1CCC1CDD1C97FE08C081E005
:1005300090E0A0E0B0E0A82AB92ACA2ADB2A3196C6
:10054000E032F10549F0660C771C881C991C569422
:10055000479437942794C3CFFA85EA892B893C893D
:100560008B859C85280F391F2E5F3F4F17C0CA010E
:1005700081709070892B61F016950795F794E79438
:1005800080E090E0A0E0B0E8E82AF92A0A2B1B2BD3
:1005900076956795579547952F5F3F4F77FDE7CF46
:1005A0000CC0440F551F661F771F17FD4160EE0CEE
:1005B000FF1C001F111F21503040403090E05907B0
:1005C00090E0690790E4790760F32B8F3C8FDB01A3
:1005D000CA018F779070A070B07080349105A1052A
:1005E000B10561F447FD0AC0E114F10401051105EC
:1005F00029F0405C5F4F6F4F7F4F40781A8EFE1797
:1006000011F081E08A8F4D8F5E8F6F8F78A383E02A
:10061000898FCE0149960E94ED04A096E2E10C94E8
:10062000FE12A8E1B0E0E7E1F3E00C94EE1269837A
:100630007A838B839C832D833E834F83588789E005
:10064000E82EF12CEC0EFD1ECE010196B7010E94A2
:10065000C2058E010F5E1F4FCE010596B8010E94A4
:10066000C2058985823040F08989823028F0C7012F
:10067000B8010E943A0601C081E06896E6E00C9459
:100680000A13A8E1B0E0E7E4F3E00C94EE1269830A
:100690007A838B839C832D833E834F83588789E0A5
:1006A000E82EF12CEC0EFD1ECE010196B7010E9442
:1006B000C2058E010F5E1F4FCE010596B8010E9444
:1006C000C2058985823040F08989823028F0C701CF
:1006D000B8010E943A0601C08FEF6896E6E00C94DC
:1006E0000A13A8E1B0E0E7E7F3E00C94EE126983A7
:1006F0007A838B839C832D833E834F83588789E045
:10070000E82EF12CEC0EFD1ECE010196B7010E94E1
:10071000C2058E010F5E1F4FCE010596B8010E94E3
:10072000C2058985823040F08989823028F0C7016E
:10073000B8010E943A0601C08FEF6896E6E00C947B
:100740000A13A8E1B0E0E7EAF3E00C94EE12698343
:100750007A838B839C832D833E834F83588789E0E4
:10076000E82EF12CEC0EFD1ECE010196B7010E9481
:10077000C2058E010F5E1F4FCE010596B8010E9483
:10078000C2058985823040F08989823028F0C7010E
:10079000B8010E943A0601C081E06896E6E00C9438
:1007A0000A13ACE0B0E0E7EDF3E00C94F2126983D9
:1007B0007A838B839C83CE010196BE016B5F7F4F52
:1007C0000E94C2058D81823061F1823050F1843007
:1007D00021F48E81882351F12EC02F81388537FD79
:1007E00020C06E812F3131051CF06623F9F023C043
:1007F0008EE190E0821B930B29853A854B855C85C1
:1008000004C056954795379527958A95D2F7662364
:10081000B1F050954095309521953F4F4F4F5F4F28
:100820000EC020E030E040E050E009C02FEF3FEF85
:100830004FEF5FE704C020E030E040E050E8B9014E
:10084000CA012C96E2E00C940E13A8E0B0E0EBE2B3
:10085000F4E00C94EA127B018C01611571058105AD
:10086000910519F482E0898360C083E089838EE179
:10087000C82ED12CDC82CB82ED82FE820F831887BA
:10088000C801B7010E949E04FC013197F7FF3BC0ED
:10089000222733272E1B3F0B57016801022E04C06D
:1008A000D694C794B794A7940A94D2F740E050E046
:1008B00060E070E081E090E0A0E0B0E004C0880F6C
:1008C000991FAA1FBB1F2A95D2F70197A109B10949
:1008D0008E219F21A023B1230097A105B10521F00E
:1008E00041E050E060E070E04A295B296C297D29F5
:1008F0004D835E836F8378878EE190E08E1B9F0B24
:100900009C838B8312C0309781F00E2E04C0EE0CB6
:10091000FF1C001F111F0A94D2F7ED82FE820F8385
:100920001887CE1ADF0ADC82CB821A82CE010196AA
:100930000E94ED042896EAE00C940613EF92FF92D1
:100940000F931F937B018C0180E0E81680E0F8068E
:1009500081E0080780E0180788F48FEFE816F104BB
:100960000105110531F028F088E090E0A0E0B0E04A
:1009700017C080E090E0A0E0B0E012C080E0E81690
:1009800080E0F80680E0080781E0180728F088E199
:1009900090E0A0E0B0E004C080E190E0A0E0B0E032
:1009A00020E230E040E050E0281B390B4A0B5B0BA3
:1009B00004C016950795F794E7948A95D2F7F70146
:1009C000EA55FF4F8081281B310941095109C901AE
:1009D0001F910F91FF90EF900895DF92EF92FF9299
:1009E0000F931F93FC01E480F58006811781D1806D
:1009F0008081823048F480E090E0A0E1B0E0E82A15
:100A0000F92A0A2B1B2BA5C0843009F49FC0823021
:100A100021F4EE24FF24870105C0E114F10401054F
:100A2000110519F4E0E0F0E096C0628173819FEF58
:100A3000623879070CF05BC022E83FEF261B370BCA
:100A40002A3131052CF020E030E040E050E02AC0AF
:100A5000B801A701022E04C0769567955795479572
:100A60000A94D2F781E090E0A0E0B0E004C0880FE3
:100A7000991FAA1FBB1F2A95D2F70197A109B10997
:100A80008E219F21A023B1230097A105B10521F05C
:100A900081E090E0A0E0B0E09A01AB01282B392B77
:100AA0004A2B5B2BDA01C9018F779070A070B07070
:100AB00080349105A105B10539F427FF09C0205CF8
:100AC0003F4F4F4F5F4F04C0215C3F4F4F4F5F4F31
:100AD000E0E0F0E02030A0E03A07A0E04A07A0E420
:100AE0005A0710F0E1E0F0E079018A0127C0603890
:100AF000710564F5FB01E158FF4FD801C7018F77FD
:100B00009070A070B07080349105A105B10539F4E2
:100B1000E7FE0DC080E490E0A0E0B0E004C08FE309
:100B200090E0A0E0B0E0E80EF91E0A1F1B1F17FFBF
:100B300005C016950795F794E794319687E01695CA
:100B40000795F794E7948A95D1F705C0EE24FF2422
:100B50008701EFEFF0E06E2F679566276795902F7E
:100B60009F77D794DD24D7948E2F8695492F462BD7
:100B7000582F5D29B701CA011F910F91FF90EF9087
:100B8000DF900895FC01DB01408151812281622FB9
:100B90006F7770E0221F2227221F9381892F880FF1
:100BA000822B282F30E0991F9927991F11969C932B
:100BB000119721153105A9F54115510561057105FB
:100BC00011F482E037C082E89FEF13969C938E93D6
:100BD00012979A01AB0167E0220F331F441F551F84
:100BE0006A95D1F783E08C930DC0220F331F441F09
:100BF000551F12968D919C911397019713969C9374
:100C00008E931297203080E0380780E0480780E418
:100C1000580758F314962D933D934D935C93179773
:100C200008952F3F310579F441155105610571058E
:100C300019F484E08C93089564FF03C081E08C93E1
:100C400012C01C9210C02F57304013963C932E9325
:100C5000129783E08C9387E0440F551F661F771F20
:100C60008A95D1F7706414964D935D936D937C9340
:100C7000179708951F93DC01FB019C91923008F4B3
:100C800047C08081823008F443C0943051F41196FB
:100C90001C91843099F58181682F70E0611B710986
:100CA0003FC0843021F0923031F48230B9F181813B
:100CB000882389F12DC011961C9111978230F1F093
:100CC00081811817D9F412962D913C911397828146
:100CD00093818217930794F028173907BCF0149674
:100CE0008D919D910D90BC91A02D248135814681DF
:100CF0005781281739074A075B0718F4112341F079
:100D00000AC082179307A407B50740F4112319F00E
:100D100061E070E005C06FEF7FEF02C060E070E05F
:100D2000CB011F910895DF93CF93CDB7DEB781E05C
:100D30000E943107CF91DF910895DF93CF93CDB714
:100D4000DEB72E970FB6F894DEBF0FBECDBF80E0A2
:100D500090E0A0E2B2E48B879C87AD87BE876B856D
:100D60007C858D859E8520E030E04AEF54E40E942A
:100D70001702DC01CB018F839887A987BA876F811F
:100D8000788589859A8520E030E040E85FE30E941D
:100D9000A10388232CF481E090E09E838D833FC0E3
:100DA0006F81788589859A8520E03FEF4FE757E48A
:100DB0000E94410318164CF56B857C858D859E85B8
:100DC00020E030E040E251E40E941702DC01CB0158
:100DD000BC01CD010E944100DC01CB019E838D83CB
:100DE0000FC088EC90E09C838B838B819C81019762
:100DF000F1F79C838B838D819E8101979E838D83E8
:100E00008D819E81009769F714C06F8178858985EF
:100E10009A850E944100DC01CB019E838D838D81E8
:100E20009E819A83898389819A810197F1F79A83B8
:100E3000898382E00E94310788E20E9431078CE0BA
:100E40000E94310781E00E94310786E00E9431074D
:100E50002E960FB6F894DEBF0FBECDBFCF91DF91B7
:100E60000895DF93CF93CDB7DEB7E9970FB6F89427
:100E7000DEBF0FBECDBF89AF80E063E040E00E94DF
:100E8000AD0E89AD82958F70982F917081E060E0F2
:100E9000492F0E94AD0E89AD829586958770982F57
:100EA000917081E061E0492F0E94AD0E89AD82957D
:100EB000869586958370982F917081E062E0492F26
:100EC0000E94AD0E89AD982F991F9927991F81E037
:100ED00064E0492F0E94AD0E80E062E041E00E9494
:100EE000AD0E80E090E0A0E0B0E48DAB9EABAFAB88
:100EF000B8AF6DA97EA98FA998AD20E030E04AEF88
:100F000054E40E941702DC01CB0189AB9AABABAB76
:100F1000BCAB69A97AA98BA99CA920E030E040E884
:100F20005FE30E94A10388232CF481E090E098AB5A
:100F30008FA73FC069A97AA98BA99CA920E03FEFA0
:100F40004FE757E40E94410318164CF56DA97EA99E
:100F50008FA998AD20E030E040E251E40E941702F2
:100F6000DC01CB01BC01CD010E944100DC01CB01C1
:100F700098AB8FA70FC088EC90E09EA78DA78DA59A
:100F80009EA50197F1F79EA78DA78FA598A9019718
:100F900098AB8FA78FA598A9009769F714C069A986
:100FA0007AA98BA99CA90E944100DC01CB0198ABD6
:100FB0008FA78FA598A99CA78BA78BA59CA5019708
:100FC000F1F79CA78BA780E062E040E00E94AD0EA5
:100FD00080E090E0A0E0B0E48FA398A7A9A7BAA70B
:100FE0006FA178A589A59AA520E030E04AEF54E4E6
:100FF0000E941702DC01CB018BA39CA3ADA3BEA36F
:101000006BA17CA18DA19EA120E030E040E85FE3D0
:101010000E94A10388232CF481E090E09AA389A385
:101020003FC06BA17CA18DA19EA120E03FEF4FE7C7
:1010300057E40E94410318164CF56FA178A589A5C5
:101040009AA520E030E040E251E40E941702DC0162
:10105000CB01BC01CD010E944100DC01CB019AA370
:1010600089A30FC088EC90E098A38F8F8F8D98A1F3
:101070000197F1F798A38F8F89A19AA101979AA35D
:1010800089A389A19AA1009769F714C06BA17CA1DB
:101090008DA19EA10E944100DC01CB019AA389A3EE
:1010A00089A19AA19E8F8D8F8D8D9E8D0197F1F7CD
:1010B0009E8F8D8F89AD982F917081E060E0492FD0
:1010C0000E94AD0E89AD8695982F917081E061E008
:1010D000492F0E94AD0E89AD86958695982F917007
:1010E00081E062E0492F0E94AD0E89AD869586951C
:1010F0008695982F917081E064E0492F0E94AD0E93
:1011000080E062E041E00E94AD0E80E090E0A0E06F
:10111000B0E4898F9A8FAB8FBC8F698D7A8D8B8D60
:101120009C8D20E030E04AEF54E40E941702DC017D
:10113000CB018D8B9E8BAF8BB88F6D897E898F890C
:10114000988D20E030E040E85FE30E94A10388230F
:101150002CF481E090E09C8B8B8B3FC06D897E8965
:101160008F89988D20E03FEF4FE757E40E944103BD
:1011700018164CF5698D7A8D8B8D9C8D20E030E0B2
:1011800040E251E40E941702DC01CB01BC01CD0119
:101190000E944100DC01CB019C8B8B8B0FC088EC43
:1011A00090E09A8B898B89899A890197F1F79A8BBC
:1011B000898B8B899C8901979C8B8B8B8B899C89D4
:1011C000009769F714C06D897E898F89988D0E9478
:1011D0004100DC01CB019C8B8B8B8B899C89988B8C
:1011E0008F878F8598890197F1F7988B8F8780E09B
:1011F00062E040E00E94AD0E80E090E0A0E0B0E44C
:101200008B879C87AD87BE876B857C858D859E850A
:1012100020E030E04AEF54E40E941702DC01CB01E9
:101220008F839887A987BA876F81788589859A8502
:1012300020E030E040E85FE30E94A10388232CF423
:1012400081E090E09E838D833FC06F8178858985A2
:101250009A8520E03FEF4FE757E40E9441031816BC
:101260004CF56B857C858D859E8520E030E040E2E5
:1012700051E40E941702DC01CB01BC01CD010E94A8
:101280004100DC01CB019E838D830FC088EC90E090
:101290009C838B838B819C810197F1F79C838B834B
:1012A0008D819E8101979E838D838D819E81009784
:1012B00069F714C06F81788589859A850E944100FD
:1012C000DC01CB019E838D838D819E819A838983EE
:1012D00089819A810197F1F79A838983E9960FB6FC
:1012E000F894DEBF0FBECDBFCF91DF910895DF939D
:1012F000CF93CDB7DEB7E9970FB6F894DEBF0FBE38
:10130000CDBF89AF80E063E041E00E94AD0E89ADC2
:1013100082958F70982F917081E060E0492F0E9434
:10132000AD0E89AD829586958770982F917081E07A
:1013300061E0492F0E94AD0E89AD82958695869514
:101340008370982F917081E062E0492F0E94AD0E6A
:1013500089AD982F991F9927991F81E064E0492F43
:101360000E94AD0E80E062E041E00E94AD0E80E0A0
:1013700090E0A0E0B0E48DAB9EABAFABB8AF6DA991
:101380007EA98FA998AD20E030E04AEF54E40E9496
:101390001702DC01CB0189AB9AABABABBCAB69A943
:1013A0007AA98BA99CA920E030E040E85FE30E9485
:1013B000A10388232CF481E090E098AB8FA73FC075
:1013C00069A97AA98BA99CA920E03FEF4FE757E4D0
:1013D0000E94410318164CF56DA97EA98FA998ADFE
:1013E00020E030E040E251E40E941702DC01CB0132
:1013F000BC01CD010E944100DC01CB0198AB8FA75D
:101400000FC088EC90E09EA78DA78DA59EA50197A3
:10141000F1F79EA78DA78FA598A9019798AB8FA7E5
:101420008FA598A9009769F714C069A97AA98BA913
:101430009CA90E944100DC01CB0198AB8FA78FA52E
:1014400098A99CA78BA78BA59CA50197F1F79CA7B2
:101450008BA780E062E040E00E94AD0E80E090E06B
:10146000A0E0B0E48FA398A7A9A7BAA76FA178A519
:1014700089A59AA520E030E04AEF54E40E941702C3
:10148000DC01CB018BA39CA3ADA3BEA36BA17CA16C
:101490008DA19EA120E030E040E85FE30E94A1031F
:1014A00088232CF481E090E09AA389A33FC06BA12C
:1014B0007CA18DA19EA120E03FEF4FE757E40E9461
:1014C000410318164CF56FA178A589A59AA520E0CF
:1014D00030E040E251E40E941702DC01CB01BC0184
:1014E000CD010E944100DC01CB019AA389A30FC06A
:1014F00088EC90E098A38F8F8F8D98A10197F1F7DA
:1015000098A38F8F89A19AA101979AA389A389A1F2
:101510009AA1009769F714C06BA17CA18DA19EA12F
:101520000E944100DC01CB019AA389A389A19AA161
:101530009E8F8D8F8D8D9E8D0197F1F79E8F8D8F54
:1015400089AD982F917081E060E0492F0E94AD0E27
:1015500089AD8695982F917081E061E0492F0E94B6
:10156000AD0E89AD86958695982F917081E062E0E9
:10157000492F0E94AD0E89AD869586958695982F48
:10158000917081E064E0492F0E94AD0E80E062E03E
:1015900041E00E94AD0E80E090E0A0E0B0E4898FD1
:1015A0009A8FAB8FBC8F698D7A8D8B8D9C8D20E04F
:1015B00030E04AEF54E40E941702DC01CB018D8B2E
:1015C0009E8BAF8BB88F6D897E898F89988D20E037
:1015D00030E040E85FE30E94A10388232CF481E01F
:1015E00090E09C8B8B8B3FC06D897E898F89988D15
:1015F00020E03FEF4FE757E40E94410318164CF5F7
:10160000698D7A8D8B8D9C8D20E030E040E251E435
:101610000E941702DC01CB01BC01CD010E944100F8
:10162000DC01CB019C8B8B8B0FC088EC90E09A8BFC
:10163000898B89899A890197F1F79A8B898B8B8994
:101640009C8901979C8B8B8B8B899C89009769F770
:1016500014C06D897E898F89988D0E944100DC01BC
:10166000CB019C8B8B8B8B899C89988B8F878F85EB
:1016700098890197F1F7988B8F8780E062E040E0CE
:101680000E94AD0E80E090E0A0E0B0E48B879C87E4
:10169000AD87BE876B857C858D859E8520E030E09B
:1016A0004AEF54E40E941702DC01CB018F83988734
:1016B000A987BA876F81788589859A8520E030E08F
:1016C00040E85FE30E94A10388232CF481E090E0CE
:1016D0009E838D833FC06F81788589859A8520E0C0
:1016E0003FEF4FE757E40E94410318164CF56B8516
:1016F0007C858D859E8520E030E040E251E40E94AB
:101700001702DC01CB01BC01CD010E944100DC01CC
:10171000CB019E838D830FC088EC90E09C838B83EC
:101720008B819C810197F1F79C838B838D819E81B6
:1017300001979E838D838D819E81009769F714C0E8
:101740006F81788589859A850E944100DC01CB01F3
:101750009E838D838D819E819A83898389819A81DD
:101760000197F1F79A838983E9960FB6F894DEBF63
:101770000FBECDBFCF91DF910895DF93CF9300D0FF
:101780000F92CDB7DEB79B838A8319820EC0898101
:10179000282F30E08A819B81FC01E20FF31F8081BA
:1017A0000E94770989818F5F89838981282F30E0A2
:1017B0008A819B81FC01E20FF31F8081882339F726
:1017C0000F900F900F90CF91DF910895DF93CF93FB
:1017D000CDB7DEB72B970FB6F894DEBF0FBECDBFE7
:1017E0009B878A878A859B85009719F480E30E94EE
:1017F00077098A859B859C838B831A821DC08A8189
:10180000E82FF0E08B819C812AE030E0B9010E9452
:10181000AC12282FCE010596E80FF91F20838B818B
:101820009C812AE030E0B9010E94AC12CB019C837C
:101830008B838A818F5F8A838B819C810097F9F6E5
:101840008A81898312C08981882F90E09C01215070
:101850003040CE010596FC01E20FF31F8081805DD0
:101860000E9477098981815089838981882359F76A
:101870002B960FB6F894DEBF0FBECDBFCF91DF9190
:1018800008950F931F93DF93CF93CDB7DEB76A9779
:101890000FB6F894DEBF0FBECDBF6E8B7F8B888FE7
:1018A000998F1A8E6E897F89888D998D20E030E01E
:1018B00040E050E00E941103882311F081E08A8FFC
:1018C00081E09A8D8927882319F080E30E947709A7
:1018D0008E899F89A88DB98D88879987AA87BB87AC
:1018E0001D8213C0688579858A859B8520E030E05C
:1018F00040E251E40E941702DC01CB0188879987FE
:10190000AA87BB878D818F5F8D83688579858A855E
:101910009B850E944100DC01CB01BC01CD010E94EE
:1019200025049B01AC01688579858A859B850E9489
:10193000B901DC01CB01BC01CD0120E030E040E089
:1019400050E00E941103882369F6688579858A85AD
:101950009B850E944100DC01CB0189839A83AB8384
:10196000BC831F822DC08F81082F10E089819A814E
:10197000AB81BC812AE030E040E050E0BC01CD0109
:101980000E94C012DC01CB01282FCE010C96FC0175
:10199000E00FF11F208389819A81AB81BC812AE00D
:1019A00030E040E050E0BC01CD010E94C012DA01FD
:1019B000C90189839A83AB83BC838F818F5F8F83B7
:1019C00089819A81AB81BC810097A105B10559F647
:1019D0009F818D81981719F480E30E9477098F8188
:1019E0008E8319C09E818D81981719F48EE20E9412
:1019F00077098E81882F90E09C0121503040CE01E4
:101A00000C96FC01E20FF31F8081805D0E94770934
:101A10008E8181508E838E81882321F78D8188234A
:101A200031F48EE20E94770980E30E9477096A967A
:101A30000FB6F894DEBF0FBECDBFCF91DF911F91DF
:101A40000F910895DF93CF9300D000D00F92CDB7C0
:101A5000DEB78A836B838A81282F30E03D832C8315
:101A60008C819D8181309105C1F02C813D81223096
:101A700031052CF48C819D81009761F019C02C8177
:101A80003D812230310569F08C819D818330910543
:101A900061F00EC08B8189830BC08B81805C898350
:101AA00007C08B818C5E898303C08B818C5A8983AC
:101AB00089818068898389810E9431070F900F9006
:101AC0000F900F900F90CF91DF910895DF93CF93F8
:101AD00000D000D00F92CDB7DEB79C838B836D838F
:101AE0001A828D81882F90E0880F991F880F991F87
:101AF000880F991F8A838A8180648A838A810E94E1
:101B0000310719820EC08981282F30E08B819C819A
:101B1000FC01E20FF31F80810E94770989818F5FAA
:101B200089838981883078F380E060E00E94220D0B
:101B30000F900F900F900F900F90CF91DF9108951D
:101B4000DF93CF9300D00F92CDB7DEB789836A833E
:101B50004B838A816B810E94220D89810E947709C3
:101B60000F900F900F90CF91DF910895DF93CF9357
:101B7000CDB7DEB780E06CEF0E94CD0D81E06FEF56
:101B80000E94CD0D82E06FEF0E94CD0D83E063E1F6
:101B90000E94CD0DCF91DF910895DF93CF9300D0B8
:101BA00000D00F92CDB7DEB78A836B8319828A810A
:101BB000282F30E03D832C838C819D8181309105DD
:101BC000D1F02C813D81223031052CF48C819D8116
:101BD000009761F01FC02C813D812230310581F0DA
:101BE0008C819D818330910581F014C0EAE3F0E09F
:101BF0008B81808311C0E7E3F0E08B8180830CC090
:101C0000E4E3F0E08B81808307C0E1E3F0E08B81C7
:101C1000808302C081E0898389810F900F900F90AB
:101C20000F900F90CF91DF910895DF93CF93CDB7B1
:101C3000DEB727970FB6F894DEBF0FBECDBF8A83FD
:101C40006B835D834C8319828B81883008F079C067
:101C50008C819D81009709F474C08A81282F30E01F
:101C60003F832E834E815F814130510559F18E8132
:101C70009F818230910534F42E813F8121153105F9
:101C800069F05CC04E815F814230510579F18E81EF
:101C90009F818330910509F43DC050C0E9E3F0E035
:101CA0008081282F30E08B81882F90E0A90102C02D
:101CB000559547958A95E2F7CA018170EC81FD81BF
:101CC000808341C0E6E3F0E08081282F30E08B8103
:101CD000882F90E0A90102C0559547958A95E2F7B3
:101CE000CA018170EC81FD8180832DC0E3E3F0E0C7
:101CF0008081282F30E08B81882F90E0A90102C0DD
:101D0000559547958A95E2F7CA018170EC81FD816E
:101D1000808319C0E0E3F0E08081282F30E08B81E0
:101D2000882F90E0A90102C0559547958A95E2F762
:101D3000CA018170EC81FD81808305C081E08983C7
:101D400002C081E08983898127960FB6F894DEBFAF
:101D50000FBECDBFCF91DF910895DF93CF93CDB765
:101D6000DEB728970FB6F894DEBF0FBECDBF8A83CB
:101D70006B834C8319828B81883008F0F4C08C818E
:101D8000813009F072C08A81282F30E038872F8394
:101D90008F8198858130910549F12F8138852230D6
:101DA00031052CF48F819885009761F05BC02F81FD
:101DB00038852230310571F18F8198858330910506
:101DC000E9F150C0ABE3B0E0EBE3F0E08081482FF5
:101DD0008B81282F30E081E090E0022E02C0880F36
:101DE000991F0A94E2F7842B8C93BFC0A8E3B0E05C
:101DF000E8E3F0E08081482F8B81282F30E081E0FC
:101E000090E0022E02C0880F991F0A94E2F7842BFB
:101E10008C93ABC0A5E3B0E0E5E3F0E08081482F10
:101E20008B81282F30E081E090E0022E02C0880FE5
:101E3000991F0A94E2F7842B8C9397C0A2E3B0E039
:101E4000E2E3F0E08081482F8B81282F30E081E0B1
:101E500090E0022E02C0880F991F0A94E2F7842BAB
:101E60008C9383C081E0898380C08C81882309F0B2
:101E700077C08A81282F30E03E832D838D819E811B
:101E80008130910559F12D813E81223031052CF4AC
:101E90008D819E81009769F060C02D813E81223046
:101EA000310589F18D819E818330910509F440C00F
:101EB00054C0ABE3B0E0EBE3F0E08081482F8B81CE
:101EC000282F30E081E090E0022E02C0880F991F99
:101ED0000A94E2F7809584238C9347C0A8E3B0E08E
:101EE000E8E3F0E08081482F8B81282F30E081E00B
:101EF00090E0022E02C0880F991F0A94E2F78095A5
:101F000084238C9332C0A5E3B0E0E5E3F0E0808168
:101F1000482F8B81282F30E081E090E0022E02C014
:101F2000880F991F0A94E2F7809584238C931DC033
:101F3000A2E3B0E0E2E3F0E08081482F8B81282F1C
:101F400030E081E090E0022E02C0880F991F0A94D1
:101F5000E2F7809584238C9308C081E0898305C0D3
:101F600081E0898302C081E08983898128960FB648
:101F7000F894DEBF0FBECDBFCF91DF910895DF9300
:101F8000CF9300D000D00F92CDB7DEB78A836B839A
:101F900019828A81282F30E03D832C838C819D819A
:101FA00081309105D1F02C813D81223031052CF416
:101FB0008C819D81009761F01FC02C813D81223072
:101FC000310581F08C819D818330910581F014C0B1
:101FD000EBE3F0E08B81808311C0E8E3F0E08B81DC
:101FE00080830CC0E5E3F0E08B81808307C0E2E3EF
:101FF000F0E08B81808302C081E0898389810F902A
:102000000F900F900F900F90CF91DF910895DF9375
:10201000CF9300D000D00F92CDB7DEB78A836B8309
:1020200019828B81883008F072C08A81282F30E0B5
:102030003D832C838C819D818130910549F12C81D8
:102040003D81223031052CF48C819D81009761F017
:102050005BC02C813D812230310571F18C819D81E5
:1020600083309105E9F150C0ABE3B0E0EBE3F0E081
:102070008081482F8B81282F30E081E090E0022E74
:1020800002C0880F991F0A94E2F784278C9341C0FD
:10209000A8E3B0E0E8E3F0E08081482F8B81282FAF
:1020A00030E081E090E0022E02C0880F991F0A9470
:1020B000E2F784278C932DC0A5E3B0E0E5E3F0E0E0
:1020C0008081482F8B81282F30E081E090E0022E24
:1020D00002C0880F991F0A94E2F784278C9319C0D5
:1020E000A2E3B0E0E2E3F0E08081482F8B81282F6B
:1020F00030E081E090E0022E02C0880F991F0A9420
:10210000E2F784278C9305C081E0898302C081E0D7
:10211000898389810F900F900F900F900F90CF912E
:10212000DF910895DF93CF93CDB7DEB7C257D0408C
:102130000FB6F894DEBF0FBECDBF0E94B60D0E9451
:102140009D0681E08E8B86E08D8BCE014796AB9607
:102150009FAF8EAFAB97A4E7B0E0AD96BFAFAEAF89
:10216000AD97B5E1AE96BFAFAE97AD96EEADFFAD14
:10217000AD970080AD968EAD9FADAD970196AD96B3
:102180009FAF8EAFAD97AB96AEADBFADAB970C9298
:10219000AB96EEADFFADAB973196AB96FFAFEEAF22
:1021A000AB97AE96FFADAE97F150AE96FFAFAE9740
:1021B000AE968FADAE978823C1F6DE019C96E09671
:1021C000BFAFAEAFE097E9E8F0E0E296FFAFEEAF69
:1021D000E297F5E1E396FFAFE397E296AEADBFADD0
:1021E000E2970C90E296EEADFFADE2973196E29663
:1021F000FFAFEEAFE297E096AEADBFADE0970C92C9
:10220000E096EEADFFADE0973196E096FFAFEEAF12
:10221000E097E396FFADE397F150E396FFAFE397C6
:10222000E3968FADE3978823C1F688E0FE01EF5B6C
:10223000FF4FDF01982F1D929A95E9F7FE01ED5BA4
:10224000FF4F84E18083FE01EC5BFF4F8EE18083D2
:10225000FE01EB5BFF4F84E18083CE01875B9F4FE4
:1022600028E0FC01DF01822F1D928A95E9F7FE012B
:10227000E75BFF4F8EE08283FE01E75BFF4F8EE05E
:102280008383FE01E75BFF4F8EE08483CE018F5A8C
:102290009F4F28E0FC01DF01822F1D928A95E9F70C
:1022A000CE01875A9F4F28E0FC01DF01822F1D924B
:1022B0008A95E9F7FE01E75AFF4F8FE18283FE011D
:1022C000E75AFF4F8FE18383FE01E75AFF4F8FE10B
:1022D0008483CE018F599F4F28E0FC01DF01822FBC
:1022E0001D928A95E9F7FE01EF59FF4F8FE1808338
:1022F000FE01EF59FF4F8FE18183FE01EF59FF4F40
:102300008FE18283FE01EF59FF4F8FE18383FE014E
:10231000EF59FF4F8FE18483FE01EF59FF4F8FE1AB
:102320008583FE01EF59FF4F8FE18683CE018F5BDE
:102330009F4F60E00E94660DCE01875B9F4F61E07A
:102340000E94660DCE018F5A9F4F62E00E94660D7B
:10235000CE01875A9F4F63E00E94660DCE018F59D0
:102360009F4F64E00E94660D80E06E894D890E9457
:10237000A00D1A8A0DC083E060E04A890E94A00D7A
:1023800083E063E04A890E94A00D8A898F5F8A8B6F
:102390008A89843180F380E06E894D890E94A00D86
:1023A00081E060E00E94220D80E690E00E94BD0B7B
:1023B00082E060E00E94220D80E690E00E94BD0B6A
:1023C00080E06E894D890E94A00D81E060E00E944E
:1023D000220DCE0147960E94BD0B82E060E00E9474
:1023E000220DCE018C960E94BD0B80E06E894D8936
:1023F0000E94A00D80E090E0AAEFB4E48B879C8758
:10240000AD87BE876B857C858D859E8520E030E01D
:102410004AEF54E40E941702DC01CB018F839887B6
:10242000A987BA876F81788589859A8520E030E011
:1024300040E85FE30E94A10388232CF481E090E050
:102440009E838D833FC06F81788589859A8520E042
:102450003FEF4FE757E40E94410318164CF56B8598
:102460007C858D859E8520E030E040E251E40E942D
:102470001702DC01CB01BC01CD010E944100DC014F
:10248000CB019E838D830FC088EC90E09C838B836F
:102490008B819C810197F1F79C838B838D819E8139
:1024A00001979E838D838D819E81009769F714C06B
:1024B0006F81788589859A850E944100DC01CB0176
:1024C0009E838D838D819E819A83898389819A8160
:1024D0000197F1F79A8389838F89898B8CA5888BE3
:1024E0001F862DC08F85482F50E08F85882F90E064
:1024F0009C012F5F3F4FCE014796FC01E20FF31F77
:102500002081CE014796FC01E40FF51F20838F85C3
:10251000482F50E08F85882F90E09C012F5F3F4F20
:10252000CE018C96FC01E20FF31F2081CE018C9628
:10253000FC01E40FF51F20838F858F5F8F878F85C8
:10254000833180F289898AA788898FAF1BA6FE0113
:10255000E05CFF4F108224CFAA1BBB1B51E107C0D8
:10256000AA1FBB1FA617B70710F0A61BB70B881F23
:10257000991F5A95A9F780959095BC01CD010895B2
:10258000A1E21A2EAA1BBB1BFD010DC0AA1FBB1F77
:10259000EE1FFF1FA217B307E407F50720F0A21BE9
:1025A000B30BE40BF50B661F771F881F991F1A9456
:1025B00069F760957095809590959B01AC01BD0180
:1025C000CF0108952F923F924F925F926F927F9228
:1025D0008F929F92AF92BF92CF92DF92EF92FF9233
:1025E0000F931F93CF93DF93CDB7DEB7CA1BDB0BDF
:1025F0000FB6F894DEBF0FBECDBF09942A88398884
:1026000048885F846E847D848C849B84AA84B9848A
:10261000C884DF80EE80FD800C811B81AA81B98196
:10262000CE0FD11D0FB6F894DEBF0FBECDBFED01AA
:062630000895F894FFCFAD
:102636002020202020202020202020202020202094
:10264600202020007C2020207C202020207C202090
:10265600207C207C7C7C20200020207C2020207C6C
:102666007C2020207C20202020202020200000000C
:10267600000000000000000102020303030304043B
:1026860004040404040405050505050505050505FA
:1026960005050505050506060606060606060606DA
:1026A60006060606060606060606060606060606C4
:1026B60006060606060607070707070707070707AA
:1026C6000707070707070707070707070707070794
:1026D6000707070707070707070707070707070784
:1026E6000707070707070707070707070707070774
:1026F600070707070707080808080808080808085A
:102706000808080808080808080808080808080843
:102716000808080808080808080808080808080833
:102726000808080808080808080808080808080823
:102736000808080808080808080808080808080813
:102746000808080808080808080808080808080803
:1027560008080808080808080808080808080808F3
:1027660008080808080808080808080808080808E3
:062776000808080808082D
:00000001FF
